{
  "_format": "hh-sol-artifact-1",
  "contractName": "World",
  "sourceName": "contracts/World.sol",
  "abi": [
    {
      "anonymous": false,
      "inputs": [
        {
          "indexed": true,
          "internalType": "address",
          "name": "planet",
          "type": "address"
        },
        {
          "indexed": true,
          "internalType": "uint256",
          "name": "tokenId",
          "type": "uint256"
        }
      ],
      "name": "PlanetExported",
      "type": "event"
    },
    {
      "anonymous": false,
      "inputs": [
        {
          "indexed": true,
          "internalType": "address",
          "name": "planet",
          "type": "address"
        },
        {
          "indexed": true,
          "internalType": "uint256",
          "name": "tokenId",
          "type": "uint256"
        }
      ],
      "name": "PlanetImported",
      "type": "event"
    },
    {
      "inputs": [
        {
          "internalType": "address",
          "name": "planet",
          "type": "address"
        },
        {
          "internalType": "uint256",
          "name": "tokenId",
          "type": "uint256"
        }
      ],
      "name": "exportPlanet",
      "outputs": [],
      "stateMutability": "nonpayable",
      "type": "function"
    },
    {
      "inputs": [
        {
          "internalType": "address",
          "name": "planet",
          "type": "address"
        },
        {
          "internalType": "uint256",
          "name": "tokenId",
          "type": "uint256"
        }
      ],
      "name": "importPlanet",
      "outputs": [],
      "stateMutability": "nonpayable",
      "type": "function"
    },
    {
      "inputs": [
        {
          "internalType": "address",
          "name": "",
          "type": "address"
        },
        {
          "internalType": "uint256",
          "name": "",
          "type": "uint256"
        }
      ],
      "name": "tokenOwners",
      "outputs": [
        {
          "internalType": "address",
          "name": "",
          "type": "address"
        }
      ],
      "stateMutability": "view",
      "type": "function"
    }
  ],
  "bytecode": "0x6080604052348015600f57600080fd5b506106cc8061001f6000396000f3fe608060405234801561001057600080fd5b50600436106100415760003560e01c80638b5e51d214610046578063ba6571a814610076578063d1c7de6814610092575b600080fd5b610060600480360381019061005b9190610543565b6100ae565b60405161006d9190610592565b60405180910390f35b610090600480360381019061008b9190610543565b6100f0565b005b6100ac60048036038101906100a79190610543565b610235565b005b60006020528160005260406000206020528060005260406000206000915091509054906101000a900473ffffffffffffffffffffffffffffffffffffffff1681565b8173ffffffffffffffffffffffffffffffffffffffff166323b872dd3330846040518463ffffffff1660e01b815260040161012d939291906105bc565b600060405180830381600087803b15801561014757600080fd5b505af115801561015b573d6000803e3d6000fd5b50505050336000808473ffffffffffffffffffffffffffffffffffffffff1673ffffffffffffffffffffffffffffffffffffffff168152602001908152602001600020600083815260200190815260200160002060006101000a81548173ffffffffffffffffffffffffffffffffffffffff021916908373ffffffffffffffffffffffffffffffffffffffff160217905550808273ffffffffffffffffffffffffffffffffffffffff167f8001b15a2b3565afd98d4d817226c6d3bb8511fba36da7ea3eb3daa849def78b60405160405180910390a35050565b3373ffffffffffffffffffffffffffffffffffffffff166000808473ffffffffffffffffffffffffffffffffffffffff1673ffffffffffffffffffffffffffffffffffffffff168152602001908152602001600020600083815260200190815260200160002060009054906101000a900473ffffffffffffffffffffffffffffffffffffffff1673ffffffffffffffffffffffffffffffffffffffff1614610312576040517f08c379a000000000000000000000000000000000000000000000000000000000815260040161030990610676565b60405180910390fd5b8173ffffffffffffffffffffffffffffffffffffffff166323b872dd306000808673ffffffffffffffffffffffffffffffffffffffff1673ffffffffffffffffffffffffffffffffffffffff168152602001908152602001600020600085815260200190815260200160002060009054906101000a900473ffffffffffffffffffffffffffffffffffffffff16846040518463ffffffff1660e01b81526004016103be939291906105bc565b600060405180830381600087803b1580156103d857600080fd5b505af11580156103ec573d6000803e3d6000fd5b505050506000808373ffffffffffffffffffffffffffffffffffffffff1673ffffffffffffffffffffffffffffffffffffffff168152602001908152602001600020600082815260200190815260200160002060006101000a81549073ffffffffffffffffffffffffffffffffffffffff0219169055808273ffffffffffffffffffffffffffffffffffffffff167fbc348d714d80a0fc1424b07b4d0790999089301ebaba496f71249bbb8b797ebe60405160405180910390a35050565b600080fd5b600073ffffffffffffffffffffffffffffffffffffffff82169050919050565b60006104da826104af565b9050919050565b6104ea816104cf565b81146104f557600080fd5b50565b600081359050610507816104e1565b92915050565b6000819050919050565b6105208161050d565b811461052b57600080fd5b50565b60008135905061053d81610517565b92915050565b6000806040838503121561055a576105596104aa565b5b6000610568858286016104f8565b92505060206105798582860161052e565b9150509250929050565b61058c816104cf565b82525050565b60006020820190506105a76000830184610583565b92915050565b6105b68161050d565b82525050565b60006060820190506105d16000830186610583565b6105de6020830185610583565b6105eb60408301846105ad565b949350505050565b600082825260208201905092915050565b7f596f7520617265206e6f7420746865206f776e6572206f66207468697320706c60008201527f616e657400000000000000000000000000000000000000000000000000000000602082015250565b60006106606024836105f3565b915061066b82610604565b604082019050919050565b6000602082019050818103600083015261068f81610653565b905091905056fea26469706673582212202fcc13d9b1f2a992d84e6ddfa6e2c13da5e3f8427f27cb919f41d5dfc1de6e5164736f6c634300081b0033",
  "linkReferences": {},
  "deployedLinkReferences": {}
}